:1000000012C02CC02BC02AC029C028C027C026C0BF
:1000100025C024C023C022C021C020C01FC01EC0D4
:100020001DC01CC01BC011241FBECFE5D4E0DEBF25
:10003000CDBF10E0A0E6B0E0E0E7F0E102C005903F
:100040000D92AE3BB107D9F720E0AEEBB0E001C0B6
:100050001D92A03EB207E1F71BD608C8D1CFCF92C0
:10006000DF92EF92FF920F931F936B017C0120E0D0
:1000700030E040E05FE444D387FD0CC020E030E096
:1000800040E05FE4C701B60193D164D38B019C01CA
:10009000305805C0C701B6015DD38B019C01B80182
:1000A000C9011F910F91FF90EF90DF90CF900895BD
:1000B000A4E0B0E0EDE5F0E040C77C016A01FC019E
:1000C0008081823008F44AC1FB019081923008F4AB
:1000D00042C1843079F4943009F040C1F701918134
:1000E000FB018181981709F439C1A0E6EA2EA0E04E
:1000F000FA2E34C1943009F42EC1923091F482303A
:1001000009F02CC188E0F701DA0101900D928A957F
:10011000E1F7FB018181F70191818923FA01818354
:100120001CC1823009F417C1F70182819381FB0160
:10013000A281B381F7010481158126813781FB01FA
:1001400084809580A680B780FC01EA1BFB0BAF0181
:10015000F7FF04C0442755274E1B5F0B4032510563
:100160000CF074C01E161F06B4F524013501042ED0
:1001700004C076946794579447940A94D2F74982BE
:100180005A826B827C82412C512C3201439404C0F0
:10019000440C551C661C771C4A95D2F741E0441A62
:1001A000510861087108482059206A207B20812C61
:1001B000912C5401839445284628472819F4812C12
:1001C000912C540149805A806B807C80842895282A
:1001D000A628B72846C0EF2B09F443C0840F951F0B
:1001E00028013901042E04C07694679457944794EB
:1001F0000A94D2F749825A826B827C82412C512C1C
:100200003201439404C0440C551C661C771C4A956B
:10021000D2F741E0441A5108610871084022512286
:100220006222732201E010E020E030E045284628F9
:10023000472819F400E010E0980149805A806B804B
:100240007C8004291529262937290BC0A817B9074E
:1002500024F4812C912C540104C0CD0100E010E065
:100260009801F7014181FB015181451709F446C00E
:10027000442349F024013501401A510A620A730AE5
:100280009301820104C0081919092A093B0937FDA5
:1002900005C0F6011182938382830CC041E0F60110
:1002A00041839383828330952095109501951F4F4C
:1002B0002F4F3F4F04831583268337830EC0880F4B
:1002C000991FAA1FBB1FF60184839583A683B7835A
:1002D00082819381019793838283F6018481958142
:1002E000A681B781AC01BD01415051096109710975
:1002F0004F3F5F4F6F4F7F4310F30CC0F6014183B8
:1003000093838283080D191D2A1D3B1D04831583C9
:100310002683378383E0F60180834481558166819B
:10032000778177FF1AC0DB01CA0181709927AA275C
:10033000BB277695679557954795842B952BA62BCC
:10034000B72B84839583A683B7838281938101969B
:100350009383828302C07B0101C07601C70124968A
:10036000E0E107C6A0E2B0E0E7EBF1E0F4C56D8F95
:100370007E8F8F8F98A3298F3A8F4B8F5C8FBE0112
:100380006F5E7F4FCE014D966DD3BE01675F7F4F8D
:10039000CE01499667D3AE014F5F5F4FBE01675FE5
:1003A0007F4FCE01419684DE93D2A096E2E0EFC566
:1003B000A0E2B0E0EDEDF1E0CEC56D8F7E8F8F8FC6
:1003C00098A3298F3A8F4B8F5C8FBE016F5E7F4F52
:1003D000CE014D9647D3BE01675F7F4FCE01499650
:1003E00041D38A8591E089278A87AE014F5F5F4FAD
:1003F000BE01675F7F4FCE0141965ADE69D2A0965B
:10040000E2E0C5C5A0E2B0E0E7E0F2E096C56D8F9E
:100410007E8F8F8F98A3298F3A8F4B8F5C8FBE0171
:100420006F5E7F4FCE014D961DD3BE01675F7F4F3C
:10043000CE01499617D39989923008F412C0898564
:10044000823008F41AC0943021F4823009F4B4C028
:1004500008C0843021F4923009F4AEC00EC092304E
:1004600051F481E02A899A85291301C080E08A8BA2
:10047000CE014196A3C0823051F481E02A899A8549
:10048000291301C080E08A87CE01099697C08D8824
:100490009E88AF88B88C0D851E852F853889E0E24F
:1004A000F0E080E090E0DC01C12CD12C760140E04E
:1004B00050E0BA0180FE18C0400F511F621F731F29
:1004C0008C0D9D1DAE1DBF1D412C512C320143943E
:1004D000401751076207730718F0412C512C320165
:1004E000840D951DA61DB71DCC0CDD1CEE1CFF1C3C
:1004F00037FF02C06894C0F8000F111F221F331F7E
:10050000B694A794979487943197A1F62B893C8948
:10051000EB85FC852E0F3F1F2E5F3F4F3C832B83C7
:1005200021E0EA893A85E31301C020E02A83EB81C8
:10053000FC810CC080FF05C076956795579547955F
:100540007068B695A795979587953196B7FDF2CFC8
:100550009F010CC0880F991FAA1FBB1F77FD8160E8
:10056000440F551F661F771F215031090097A105C1
:10057000E0E4BE0778F32B833C838C019D010F7769
:10058000112722273327003411052105310559F49D
:1005900087FD09C0452B462B472B29F0805C9F4FD8
:1005A000AF4FBF4F80788D839E83AF83B88783E042
:1005B0008983CE01019602C080E690E089D1A096A1
:1005C000E0E1D7C4A8E1B0E0E7EEF2E0BEC46D8B95
:1005D0007E8B8F8B988F298B3A8B4B8B5C8BBE01DC
:1005E000675F7F4FCE0145963DD2BE016F5F7F4F63
:1005F000CE01419637D29985923008F475C0898131
:10060000823008F474C02A853A8123272A879430DF
:1006100011F0923019F4981367C06CC0843039F42B
:100620001D861E861F86188A1C861B8604C0823083
:1006300029F484E08987CE0109965EC08B859C856C
:100640002B813C81821B930B9C878B874D855E851C
:100650006F857889CD80DE80EF80F8844C155D054C
:100660006E057F0538F4440F551F661F771F0197ED
:100670009C878B87EFE1F0E000E010E020E030E4C1
:1006800080E090E0DC014C155D056E057F0540F0D3
:10069000802B912BA22BB32B4C195D096E097F097E
:1006A0003695279517950795440F551F661F771F99
:1006B000319749F78C019D010F77112722273327A6
:1006C000003411052105310559F487FD09C0452B7A
:1006D000462B472B29F0805C9F4FAF4FBF4F807850
:1006E0008D879E87AF87B88BCE01099605C0CE0156
:1006F000019602C080E690E0EBD06896E8E041C445
:10070000A8E1B0E0E5E8F3E026C46D8B7E8B8F8B2B
:10071000988F298B3A8B4B8B5C8BBE01675F7F4F29
:10072000CE0145969FD1BE016F5F7F4FCE014196AE
:1007300099D18985823050F08981823038F0BE01AC
:100740006F5F7F4FCE010996FCD101C08FEF689695
:10075000E2E01DC4ACE0B0E0EFEAF3E0FAC3698781
:100760007A878B879C87BE016F5F7F4FCE0109968A
:1007700079D18981823091F1823080F1843041F4E5
:100780008A81882331F100E010E020E030E829C0C0
:100790002B813C8137FD22C02F3131058CF78EE152
:1007A00090E0821B930B0D811E812F81388504C040
:1007B00036952795179507958A95D2F78A818823CC
:1007C00081F030952095109501951F4F2F4F3F4F89
:1007D00008C00FEF1FEF2FEF3FE703C000E010E06E
:1007E0009801B801C9012C96E4E0CFC3A8E0B0E0BD
:1007F000EBEFF3E0AAC38B019C011A82611571052E
:100800008105910519F482E089835CC083E08983C6
:100810004EE150E05C834B83C901B80173D301976B
:1008200097FF39C0EE27FF27E81BF90B41E050E0A6
:1008300060E070E00E2E04C0440F551F661F771F46
:100840000A94D2F74150510961097109402351239B
:1008500062237323C12CD12C7601C394452B462BE4
:10086000472B19F4C12CD12C760104C0369527955D
:1008700017950795EA95D2F70C291D292E293F29AE
:100880000D831E832F8338872EE130E0281B390B20
:100890003C832B8317C0009729F40D831E832F837D
:1008A000388710C0082E04C0000F111F221F331FED
:1008B0000A94D2F70D831E832F833887481B590B68
:1008C0005C834B83CE01019603D02896E8E059C3A0
:1008D0000F931F93CF93DF93DC0114964D915D919D
:1008E0006D917C9117971196EC9111978C918230B4
:1008F00020F460618FEF90E0A6C0843009F49EC0C0
:10090000823009F495C0411551056105710509F45E
:1009100092C012962D913C91139722388FEF380791
:100920000CF058C0C2E8DFEFC21BD30BCA31D105AF
:100930006CF58A019B010C2E04C0369527951795FE
:1009400007950A94D2F781E090E0A0E0B0E00C2E89
:1009500004C0880F991FAA1FBB1F0A94D2F70197E2
:10096000A109B10984239523A623B72341E050E0D0
:1009700060E070E0892B8A2B8B2B19F440E050E06B
:10098000BA01402B512B622B732B03C040E050E087
:10099000BA01DB01CA018F779927AA27BB278034C8
:1009A0009105A105B10539F447FF09C0405C5F4FCF
:1009B0006F4F7F4F04C0415C5F4F6F4F7F4F81E0AF
:1009C00090E041155105610520E4720748F580E08B
:1009D00090E026C0203831058CF5DB01CA018F7705
:1009E0009927AA27BB2780349105A105B10539F4C1
:1009F00047FF09C0405C5F4F6F4F7F4F04C0415CB1
:100A00005F4F6F4F7F4F77FD04C0C90181589F4FE3
:100A100007C07695679557954795C90180589F4FB0
:100A200097E076956795579547959A95D1F70BC0BE
:100A300080E090E005C080E090E005C08FEF90E09E
:100A400040E050E0BA01982F9695E0FB97F9362FD9
:100A500080FB37F9642F752F832FDF91CF911F9182
:100A60000F910895CF92DF92EF92DC01FB01CC90C1
:100A70001196DC90119712968C9112973FE7E32E16
:100A8000E8226E2DA60170E0982F991F9927991FD3
:100A900013962C91822F880F892B90E027FB222719
:100AA00020F92183009729F541155105610571054C
:100AB00011F482E027C082E89FEF9383828327E0CE
:100AC000440F551F661F771F2A95D1F783E0808357
:100AD00009C0440F551F661F771F828193810197BC
:100AE0009383828341155105610580E4780788F37B
:100AF00020C08F3F910579F44115510561057105BD
:100B000019F484E0808319C0E4FE03C081E080838F
:100B100010C010820EC08F5791099383828383E0A7
:100B2000808387E0440F551F661F771F8A95D1F792
:100B300070644483558366837783EF90DF90CF9012
:100B40000895CF93FC01DB019081923008F452C0EC
:100B50008C91823008F44EC0943071F4843039F4B2
:100B600011962C9130E08181281B310948C0818188
:100B7000882309F43FC03BC0843029F411968C913E
:100B8000811138C034C0923019F48230B9F735C0C1
:100B9000823069F3C18111968C911197C8131DC0E1
:100BA0002281338112968D919C911397821793071E
:100BB0000CF413C0281739070CF417C04481558171
:100BC0006681778114968D919D910D90BC91A02D99
:100BD00084179507A607B70718F4C11108C00AC003
:100BE000481759076A077B0740F4C11103C02FEF6C
:100BF0003FEF05C021E030E002C020E030E0C90155
:100C0000CF91089590BD89B988E08AB908955D9B18
:100C1000FECF8CB90895CF93DF93EC0101C0F7DFCD
:100C200089918111FCCFDF91CF910895CF93DF930C
:100C3000EC0101C0ECDFFE01219684918111FACF15
:100C4000DF91CF910895CF93DF93CDB7DEB7619752
:100C50000FB6F894DEBF0FBECDBF242F30E0AE013B
:100C60004F5F5F4F9FD1CE010196D5DF61960FB6E2
:100C7000F894DEBF0FBECDBFDF91CF91089597B13D
:100C8000987F982B97B9369A24B135B1C901089548
:100C9000379A329A80E487B98A98929A83E390E0EF
:100CA000B1DF7894C0E001C0C1E085E0E8DF4397A0
:100CB00008F4F8C085E0E3DF9093CB008093CA008E
:100CC00081E090E04091CA005091CB00FC01EE0F12
:100CD000FF1FE453FF4F208131812417350740F473
:100CE0008091CA009091CB00918380838AE090E04C
:100CF00001968B30910531F71092C6001092C70013
:100D00001092C8001092C90000E010E0C090C60028
:100D1000D090C700E090C800F090C900F801EE0F35
:100D2000FF1FE453FF4F6081718180E090E05EDD42
:100D30009B01AC01C701B60115DBAB01BC014093BF
:100D4000C6005093C7006093C8007093C9000F5F3E
:100D50001F4F0B301105D1F66091C6007091C7008E
:100D60008091C8009091C90020E030E040E251E459
:100D700029DCAB01BC014093C6005093C7006093CF
:100D8000C8007093C9006091C6007091C70080913F
:100D9000C8009091C90020E030E040EA50E432DB26
:100DA00020E030EC4FE754E40DDCAB01BC01409394
:100DB000BE005093BF006093C0007093C10060916B
:100DC000BE007091BF008091C0009091C10020E0F2
:100DD00030E04AE754E416DBAB01BC014093C200AB
:100DE0005093C3006093C4007093C5006091C2002B
:100DF0007091C3008091C4009091C5002EEA37E441
:100E000047ED51E4FFDA20E030E149E155E4D0DA82
:100E1000AB01BC014093BE005093BF006093C00083
:100E20007093C10088E690E0F6DE6091BE0070919C
:100E3000BF008091C0009091C10011D94AE003DF4A
:100E400084E790E0E8DE6091BE007091BF00809181
:100E5000C0009091C10020E030E04AE754E4B2DBEA
:100E6000FED84AE0F0DE80E890E0D5DE6091C60072
:100E70007091C7008091C8009091C900F0D84AE0F5
:100E8000E2DE86E790E0C7DE6091C2007091C300A9
:100E90008091C4009091C500E2D84AE0D4DE83E995
:100EA00090E002C086E990E0B6DE8DE0B0DE8AE038
:100EB000AEDE829924C08FE39CE90197F1F700C070
:100EC000000082991CC0C130D1F480E090E0FC01A8
:100ED000EE0FFF1FE453FF4F118210821092CB00E0
:100EE0001092CA001092C6001092C7001092C8005B
:100EF0001092C90001968B30910549F7C0E08299A4
:100F0000D3CED3CE06D084FF0895CB0102D0805F2C
:100F10000895AA27992329F4A85F982B11F480E15A
:100F20000895903118F4AD5F9295A395990FE8F765
:100F30008A2F992708952F923F924F925F926F9236
:100F40007F928F929F92AF92BF92CF92DF92EF9259
:100F5000FF920F931F93CF93DF93CDB7DEB7CA1BDA
:100F6000DB0B0FB6F894DEBF0FBECDBF09942A8805
:100F7000398848885F846E847D848C849B84AA84AD
:100F8000B984C884DF80EE80FD800C811B81AA813A
:100F9000B981CE0FD11D0FB6F894DEBF0FBECDBF05
:100FA000ED010895FA01CF93FF93EF9322303CF1C6
:100FB00025322CF5C22FE894CA3049F497FB3EF451
:100FC00090958095709561957F4F8F4F9F4F2C2FF7
:100FD000332744275527FF93EF9326D0EF91FF91B6
:100FE000605D6A330CF0695D6193B901CA016050BC
:100FF00070408040904059F716F4CDE2C1931082C2
:101000008F919F91CF9100C0DC01FC01672F7191FE
:101010007723E1F7329704C07C916D9370836291DE
:10102000AE17BF07C8F30895A1E21A2EAA1BBB1B77
:10103000FD010DC0AA1FBB1FEE1FFF1FA217B307A4
:10104000E407F50720F0A21BB30BE40BF50B661FBA
:10105000771F881F991F1A9469F76095709580957E
:1010600090959B01AC01BD01CF010895F894FFCF8D
:101070000000000000000000504F4D494152204642
:10108000203D20006D4E2C20637A796C693A200057
:10109000204E207C20504F4D494152204144432056
:1010A0003D20006D56004E61706965636965207072
:1010B0006F6E697A656A2039316D562E20506F64E3
:0E10C0006C61637A20637A756A6E696B00005A
:00000001FF
